:040800009DEF16F062
:08080800046ED8CF05F0E0CF2B
:1008100006F00001E9CF0CF0EACF07F0E1CF08F0D5
:10082000E2CF09F0D9CF0AF0DACF0BF0F3CF12F014
:10083000F4CF13F0FACF14F0F5CF15F0F6CF16F091
:10084000F7CF17F000C00EF001C00FF002C010F09B
:1008500003C011F09DA230EF04F09EB2E0EF05F06E
:100860009DAA36EF04F09EBA1BEF06F0A3AA3CEF58
:1008700004F0A4BA90EF06F0A3A642EF04F0A4B6E9
:1008800050EF06F00EC000F00FC001F010C002F0F3
:1008900011C003F00CC0E9FF07C0EAFF078E08C0D3
:1008A000E1FF09C0E2FF0AC0D9FF0BC0DAFF12C0A6
:1008B000F3FF13C0F4FF14C0FAFF15C0F5FF16C014
:1008C000F6FF17C0F7FF045006C0E0FF05C0D8FFD1
:1008D0001000F76AE20FF66E080EF7220900F550D5
:1008E000120000C1814001C0804101C0804100C1AF
:1008F000814001C0804100C1814000C1814001C0F0
:10090000804101C0804100C1814000C1814001C0DF
:10091000804100C1814001C0804101C0804100C1CF
:10092000814001C0804100C1814000C1814001C0BF
:10093000804100C1814001C0804101C0804100C1AF
:10094000814000C1814001C0804101C0804100C19F
:10095000814001C0804100C1814000C1814001C08F
:10096000804101C0804100C1814000C1814001C07F
:10097000804100C1814001C0804101C0804100C16F
:10098000814000C1814001C0804101C0804100C15F
:10099000814001C0804100C1814000C1814001C04F
:1009A000804100C1814001C0804101C0804100C13F
:1009B000814001C0804100C1814000C1814001C02F
:1009C000804101C0804100C1814000C1814001C01F
:1009D000804100C1814001C0804101C0804100C10F
:1009E0008140F76AF20FF66E090EF7220900F55002
:1009F000120000C0C101C30302C2C60607C705C575
:100A0000C404CC0C0DCD0FCFCE0E0ACACB0BC90936
:100A100008C8D81819D91BDBDA1A1EDEDF1FDD1D46
:100A20001CDC14D4D515D71716D6D21213D311D176
:100A3000D010F03031F133F3F23236F6F737F535C6
:100A400034F43CFCFD3DFF3F3EFEFA3A3BFB39F9F6
:100A5000F83828E8E929EB2B2AEAEE2E2FEF2DEDC6
:100A6000EC2CE42425E527E7E62622E2E323E12136
:100A700020E0A06061A163A3A26266A6A767A56546
:100A800064A46CACAD6DAF6F6EAEAA6A6BAB69A9B6
:100A9000A86878B8B979BB7B7ABABE7E7FBF7DBDC6
:100AA000BC7CB47475B577B7B67672B2B373B171F6
:100AB00070B05090915193535292965657975595C6
:100AC00094549C5C5D9D5F9F9E5E5A9A9B5B995976
:100AD0005898884849894B8B8A4A4E8E8F4F8D4D46
:100AE0004C8C4484854587474686824243834181B6
:100AF0008040232064756D70696E6720616C6C2086
:100B0000656E61626C656420646576696365733ADD
:100B10000D0A00006465766963655B25755D0D0AE5
:100B2000000009747970653D25750D0A000009748F
:100B300072616E736D697445766572793D25750DC8
:100B40000A00096E6574776F726B41646472657335
:100B5000733D25750D0A00000973657269616C4E5D
:100B6000756D6265723D3078253032782530327887
:100B700025303278253032780D0A0000097374610F
:100B8000727452656769737465723D256C750D0AE0
:100B90000000096E5265676973746572733D25754F
:100BA0000D0A00002320646F6E650D0A00009D92FF
:100BB0000601FF5303E0CC6A9E929D820001120061
:100BC00005018C5102080AE18D5308E18E5306E1BC
:100BD0008BB104D0020E905F8B8101D08B918E6916
:100BE0008D698C6B0601FF6B0001E1DF9E9242EF85
:100BF00004F09EAAFED7ACCF20F0AFCF01F020A228
:100C000002D0AC98AC88120005018E510601FF1984
:100C10000701006F036A005100015BDE016E0501F0
:100C20008D5101188E6F036A070100510001D9DE52
:100C3000E8CF8DF51200DDDF01C0FEF605018BB1B6
:100C40002BD08C5308E18E698D69FEC68FF58C2BF5
:100C5000906B926B17D08C2D04D0FEC691F58C2B27
:100C600011D08C5102080EE1903D02D0FE0E906F23
:100C7000930E9025E96E050EEA6ED8B0EA2AFEC6FC
:100C8000EFFF902BFEC6FFF60001BEDF010E06014E
:100C9000FF6F00018CDF05019E9A000142EF04F016
:100CA0000601922B9251640815E1926B932BD8B4F4
:100CB000942B050186510601945D0CE305E10501C5
:100CC00085510601935D06E3946B936B010E03015E
:100CD000616F06010301623D01D003D0622B939640
:100CE0008A76645303E193988A9803D093988A880C
:100CF0006407655303E1939A8A9A03D0939A8A8A88
:100D00006507A496000142EF04F0A4AAFED79CCF89
:100D100020F0AACF01F020A202D09C989C8812005B
:100D200093948A8405016C5304E00001EEDF9394F0
:100D30008A94030162510A0805E205016B6B939ADC
:100D40008A7A0301626B05016B5336E196C695F60C
:100D500097C696F698C697F699C698F60001D5DF1D
:100D600001C099F606019551230824E19651050129
:100D7000825DD8B402D006011DD097C603F00601EB
:100D800098510501835DD8B402D0060113D00350F9
:100D9000845DD8B402D006010DD095C66BF496C61A
:100DA0006CF497C66DF498C66EF499C66FF4050E90
:100DB0006B6F06011DD005016B516B2B6B0FE96E3C
:100DC000040EEA6ED8B0EA2AEACF03F7E9CF02F7B9
:100DD00000019BDF03C7EAFF02C7E9FF01C0EFFF85
:100DE00004016F5105016B5D02E1010E6C6F06019C
:100DF00093948A94A49A000142EF04F02320727322
:100E00005461702E6320257320282563256C752975
:100E10000D0A000032352D4E6F762D31350005015B
:100E20006B6B6C6B00011200720ED36ED350C290CC
:100E3000FF0E0F01486FC29CC29E4951E00B1F0973
:100E4000496F780E0609766E4D0E776EA386010EF9
:100E50000301616F6269636B646B656B0001DFDFC7
:100E6000A38A28EF17F0F250036EF29EA6840F01BA
:100E7000550EA76EAA0EA76EA68200000350F212AE
:100E800000011200C00EF6163F0E006E08000D00A5
:100E9000002EFCD708000C0012000601F86BFA6B5C
:100EA000F96BFA6BF96BFA51F75D42E303E1F65126
:100EB000F95D3EE20400F5C603F0F451E96E03C0AB
:100EC000EAFFEFCFFBF6F8C6FCF6FBC6FDF6FC51D9
:100ED000FD19016E01C0F8F6D890F935026EFA35A9
:100EE000036E0250F225FB6F0350F321FC6FF5C631
:100EF00003F0F4C6E9FFF5C6EAFFEFCFFDF6D08CAC
:100F0000F86AF76EFBC6F6FF0001BCDFFBC6F6FF12
:100F1000FDC6F5FF0D00F56A0C00A5DFF86AF86A5A
:100F20000601F42BD8B4F52BF92BD8B4FA2BBBD788
:100F3000F8C601F000011200D08CF86A040EF76EBA
:100F4000F66AA68890DFF86AD08CF86A060EF76E0B
:100F5000F66AA68888DFF86A050E0601F06F820E31
:100F6000EF6F040EF36F020EF26FF0C6F5F6EFC6E8
:100F7000F4F6F76B050EF66F00018FDF01C0EEF699
:100F8000D08CF86A040EF76EF66A7CDFF66AEEC65D
:100F9000F5FF0D00F56A0C0066DFF86AF86A1200CA
:100FA000960E0301656F410E0501826F120E846F6C
:100FB000630E836F866B0A0E856F0001BDDF120022
:100FC0000601F651F803F3CF01F0F4CF00F0F90376
:100FD000F3500026F751F803F3500020026E000191
:100FE0001200D08CF86A380EF76EF66AA6883BDFDE
:100FF000F86AD08CF86A3A0EF76EF66AA68833DF84
:10100000F86A0601F16B210EF06F380EF36F020ED5
:10101000F26FF1C6F5F6F0C6F4F6030EF76F400E68
:10102000F66F00013ADF01C0EFF6D08CF86A380E97
:10103000F76EF66A27DFF66AEFC6F5FF0D00F56A70
:101040000C0011DFF86AF86A1200960E0301656F52
:101050000601EE6BEE513F0812E3F76BEEC6F6F6B3
:10106000F96B0D0EF86F0001ABDF210E06010124B4
:10107000E96E000E0220EA6EEF6AEE2BEBD7040E4B
:10108000216E236A010E226E246E256E296A030EDC
:10109000286EB00E276EA70E266E030E2B6EE80E7E
:1010A0002A6E220E2C6E040E2E6E306A640E2F6E87
:1010B000010E316E180E326E366A410E356E120E0A
:1010C000346E640E336E386A376A2E0E396E000144
:1010D00088DF12000601E56BE76BE66BE76BE66BFA
:1010E000E751E45D3BE303E1E351E65D37E20400F1
:1010F000E1C6E9FFE2C6EAFFD890E635026EE735C1
:10110000036E0250DF25EA6F0350E021F2CFECF6C8
:10111000F29EF86AF76EEAC6F6FF0900F55008007D
:10112000F5CF03F0F86AECBFF28EEF6EE2C603F083
:10113000E151E96E03C0EAFFEFCFE8F6E5C6FCF641
:10114000E8C6FDF6FC51FD19016E01C0E5F6E12B84
:10115000D8B4E22BE62BD8B4E72BC2D7E5C601F012
:1011600000011200050E0601DE6F820EDD6F040E17
:10117000E06F020EDF6FDEC6E2F6DDC6E1F6E46B7D
:10118000050EE36F0001A6DF01C0DCF6F2CFDDF64D
:10119000F29EF86A040EF76EF66A0900F550080030
:1011A000F5CF03F0F86A0601DDBFF28EDC5D02E1E7
:1011B000035203E00001F4DE0601000130EF17F0F6
:1011C0000601DE6B210EDD6F380EE06F020EDF6F61
:1011D000DEC6E2F6DDC6E1F6030EE46F400EE36F15
:1011E000000178DF01C0DCF6F2CFDDF6F29EF86A8E
:1011F000380EF76EF66A0900F5500800F5CF03F0D7
:10120000F86A0601DDBFF28EDC5D02E1035203E005
:1012100000011BDF0601000132EF17F00900F6CFD5
:10122000DDF6F7CFDEF6F550A4A8FED7A96EDDC631
:10123000F6FFDEC6F7FF0601DC2F01D002D0000169
:10124000EDD700013CEF17F00900F5520DE0F6CFA5
:10125000DCF6F7CFDDF6F550A4A8FED7A96EDCC604
:10126000F6FFDDC6F7FFF0D742EF17F0EACFE4F65E
:10127000E9CFE3F60601DD39F009DF6FDF27E20F82
:10128000E06F320FE26FDD510F0BE027E027E2271E
:10129000E90FE16FE127E127DC390F0BE127E227B6
:1012A000E137E237E21FE237DC510F0BE227DF378D
:1012B000070EDE6F0A0EE107E227FDE3E007E127F4
:1012C000FDE3DF07E027FDE3DE07DF27FDE3060E92
:1012D000EA6EDE0EE96E070EE315E39DE926E20EE7
:1012E000E95CD8B4E38DEF50006E08E1E3BD06D0B1
:1012F000E3B90CD0E3B702D0200E03D0E387E39923
:10130000300E00260050A4A8FED7A96EEE50E3AD23
:10131000E6D7000158EF17F09EAA02D06ADCFCD78E
:10132000929089909D8A120092928992F5DF200E08
:101330000609CA6EF90ECB6EC00EF21266EF17F0F8
:10134000060EEA6EDC0EE96EEF5011E0020E016E41
:10135000BF0E006E0400002EFDD7012EF9D7960EA9
:10136000006E002EFED700D00400EF2EEFD7120043
:101370009EA8FED7AE6EC1EF09F00601F151000143
:10138000F7D7196AF2BE198EF29EF1C6FFF63CDC61
:1013900019BEF28E0400440E006E002EFED700D05F
:1013A000120005018E698D698B919D9A92928982B6
:1013B0000400F20E006E002EFED7EEC6F1F600011C
:1013C000DCDFEFC6F1F6D9DF12008EC5EFF68DC572
:1013D000EEF6EFC6F1F6D1DFEEC6F1F6CEDFADA246
:1013E000FED70400F20E006E002EFED795DF92921B
:1013F000899205018E698D690001120005018BB18A
:1014000004D0000E016E0AD006D091AF04D093C56F
:1014100092F5010E906F8B91010E016E000112008A
:10142000E3C6EEF6040E0601EF6F0001BADFE5C673
:10143000E8F6E5C6F1F6A1DFE4C6E8F6E4C6F1F6A3
:101440009CDFE7C6E8F6E7C6F1F697DFE6C6E8F602
:10145000E6C6F1F692DFB9DF0601E35329E00001A9
:10146000CDDF015219E1FF0E05018727D8A088279B
:10147000D8A08927D8A08A27875309E1885307E194
:10148000895305E18A53D8A402D0000105D0040095
:1014900000000601E4D700010501875308E18853E5
:1014A00006E1895304E18A5302E10C0E926F0601B2
:1014B00005018A6B010E896F860E886FA00E876FFB
:1014C00092C501F0000112000601F751F707000A6A
:1014D00026E0F6C603F0F551F52BD8B4F62BE96EED
:1014E00003C0EAFFEF50F31BF86BF851070816E34F
:1014F000F351010B006E036A005003100AE0D8900C
:10150000F431FA6FF331010AF36FFA51A00AF46F64
:1015100003D0D890F433F333F82BE7D7D6D7F3C6FC
:1015200001F0F4C602F000011200A4A8FED7A96ED3
:101530001200110E04016725020F0601F16FF26B14
:10154000230EE06F82C5E1F684C5E2F6060183C58D
:10155000E3F60601E469120EE56FF2C6E6F6F1C69F
:10156000E7F66AC4E8F6060169C4E9F6060168C44C
:10157000DFF6F76BDFC6F6F6F96B0D0EF86F0001BC
:101580001FDD01C0F3F6010E06010124016E000EFD
:101590000220036E0150210FE96E000E0320EA6E57
:1015A000ECCFF4F6ED52EFCFF3F6F4C6EAF6F76BB4
:1015B000DFC6F6F6F96B0D0EF86F000101DD01C014
:1015C000F3F6010E06010124016E000E0220036EE7
:1015D0000150210FE96E000E0320EA6EECCFF4F605
:1015E000ED52EFCFF3F6F3C6EBF6F76BDFC6F6F688
:1015F000F96B0D0EF86F0001E3DC01C0F3F6050E88
:1016000006010124016E000E0220036E0150210F1D
:10161000E96E000E0320EA6EEFCFF3F6ECCFF4F69E
:10162000ECCFF5F6ECCFF6F6F6C6ECF6F76BDFC6C8
:10163000F6F6F96B0D0EF86F0001C2DC01C0F3F68F
:10164000050E06010124016E000E0220036E0150FA
:10165000210FE96E000E0320EA6EEFCFF3F6ECCF18
:10166000F4F6ECCFF5F6ECCFF6F6F5C6EDF6F76B43
:10167000DFC6F6F6F96B0D0EF86F0001A1DC01C0B4
:10168000F3F6050E06010124016E000E0220036E22
:101690000150210FE96E000E0320EA6EEFCFF3F642
:1016A000ECCFF4F6ECCFF5F6ECCFF6F6F4C6EEF6AA
:1016B000F76BDFC6F6F6F96B0D0EF86F000180DCF4
:1016C00001C0F3F6050E06010124016E000E022092
:1016D000036E0150210FE96E000E0320EA6EEFCF7A
:1016E000F3F6ECCFF4F6ECCFF5F6ECCFF6F6F3C666
:1016F000EFF666C3F0F6F469F369060EF66FE10ED5
:10170000F56F100EF76F0001DFDE02C0DEF601C0DC
:10171000DDF6DEC6F4F6DDC6F3F6030E0601F66F5F
:10172000670EF56F67C4F7F60001CEDE02C0DEF685
:1017300001C0DDF60601DF6BDF5110080FE3036A1D
:10174000DF51E00FE96E060E0320EA6EEFCFF3F6ED
:10175000F3510001EADE0601DF2BEED7DF6B040157
:1017600067510601DF5D0FE2670EDF25E96E030EAC
:10177000EA6ED8B0EA2AEFCFF3F6F3510001D5DED6
:101780000601DF2BECD7DEC6F3F6F3510001CDDE08
:10179000DDC6F3F60601F3510001C7DE1200E3C611
:1017A000EEF6010E0601EF6F0001FBDDE5C6E8F67F
:1017B000E5C6F1F6E2DDE4C6E8F6E4C6F1F6DDDD05
:1017C000E7C6E8F6E7C6F1F6D8DDE6C6E8F6E6C60F
:1017D000F1F6D3DDFADD0601E35329E000010EDE68
:1017E000015219E1FF0E05018727D8A08827D8A04C
:1017F0008927D8A08A27875309E1885307E18953AD
:1018000005E18A53D8A402D0000105D004000000ED
:101810000601E4D700010501875308E1885306E17A
:10182000895304E18A5302E10C0E926F060105010F
:101830008A6B010E896F860E886FA00E876F92C526
:1018400001F0000112000601DC6BDC513F08D8A05A
:10185000E7D10400640E0301646F0601F76BDCC678
:10186000F6F6F96B0D0EF86F0001E0EC07F002C020
:10187000DEF601C0DDF6210E06010124E96E000E40
:101880000220EA6EEF5001E1C9D1036ADC519C0FDE
:10189000E96E060E0320EA6EEF2A036ADC519C0F04
:1018A000E96E060E0320EA6EEFCFDDF6F76BDCC6BD
:1018B000F6F6F96B0D0EF86F0001E0EC07F002C0D0
:1018C000DFF601C0DEF6030E06010124016E000EF4
:1018D0000220036E0150210FE96E000E0320EA6E14
:1018E000EF50DD5D02E29AD108D0036ADC519C0F13
:1018F000E96E060E0320EA6EEF6AF76BDCC6F6F6B9
:10190000F96B0D0EF86F0001E0EC07F002C0DEF697
:1019100001C0DDF60C0E06010124016E000E02204E
:10192000036E0150210FE96E000E0320EA6EEF50A6
:10193000010806E17E96190EB06EA60EAD6E05D0BA
:101940007E960C0EB06EA20EAD6EDCC668F49BC621
:101950006AF49AC669F4F76BDCC6F6F6F96B0D0EFD
:10196000F86F0001E0EC07F002C0DEF601C0DDF622
:10197000210E06010124E96E000E0220EA6EEF50EE
:10198000030818E0F76BDCC6F6F6F96B0D0EF86F7E
:101990000001E0EC07F002C0E0F601C0DFF6210E26
:1019A00006010124E96E000E0220EA6EEF500408E1
:1019B000D8A483D0F76BDCC6F6F6F96B0D0EF86F82
:1019C0000001E0EC07F002C0DEF601C0DDF6040E17
:1019D00006010124016E000E0220036E0150210F4A
:1019E000E96E000E0320EA6EEFCFDDF6F76BDCC682
:1019F000F6F6F96B0D0EF86F0001E0EC07F001C090
:101A0000DEF6090E06010124016E000E0220036EAF
:101A10000150210FE96E000E0320EA6EECCFDFF6D5
:101A2000ED52EFCFDEF6F76BDCC6F6F6F96B0D0E76
:101A3000F86F0001E0EC07F002C0E1F601C0E0F64B
:101A40000B0E06010124016E000E0220036E0150F0
:101A5000210FE96E000E0320EA6EEFCFE0F6DDC63F
:101A6000E3F6DFC6E5F6DEC6E4F6E76BE0C6E6F6CB
:101A70000001D6DC01C066F3030166531CE1010ED0
:101A80000501905D0401676F010E0501905D06017F
:101A9000DD6F030EEA6E670EE96E050EE26E940EC0
:101AA000E16EDD51016E04E0E6CFEEFF012EFCD7C2
:101AB00000013FDD0301B1D00601F76BDCC6F6F68D
:101AC000F96B0D0EF86F0001E0EC07F002C0DEF6D6
:101AD00001C0DDF6210E06010124E96E000E022090
:101AE000EA6EEF50010818E0F76BDCC6F6F6F96B0A
:101AF0000D0EF86F0001E0EC07F002C0E0F601C047
:101B0000DFF6210E06010124E96E000E0220EA6EC6
:101B1000EF500208D8A482D0F76BDCC6F6F6F96B5A
:101B20000D0EF86F0001E0EC07F002C0DEF601C018
:101B3000DDF6040E06010124016E000E0220036E84
:101B40000150210FE96E000E0320EA6EEFCFDDF6A3
:101B5000F76BDCC6F6F6F96B0D0EF86F0001E0ECE2
:101B600007F001C0DEF6090E06010124016E000E29
:101B70000220036E0150210FE96E000E0320EA6E71
:101B8000ECCFDFF6ED52EFCFDEF6F76BDCC6F6F604
:101B9000F96B0D0EF86F0001E0EC07F002C0E1F602
:101BA00001C0E0F60B0E06010124016E000E0220BA
:101BB000036E0150210FE96E000E0320EA6EEFCF95
:101BC000E0F6DDC6E3F6DFC6E5F6DEC6E4F6E76B73
:101BD000E0C6E6F60001E3DD01C066F303016653EB
:101BE0001CE1010E0501905D0401676F010E050106
:101BF000905D0601DD6F030EEA6E670EE96E050E5D
:101C0000E26E940EE16EDD51016E04E0E6CFEEFF70
:101C1000012EFCD700018DDC03010601DC2B15D65B
:101C20009A2BD8B49B2B0301646B000186EF17F04D
:101C30000601EB510308D8A07AD104E1EA51E70884
:101C4000D8A075D1EB31036EEA31026E0332023255
:101C50000332023202C0EFF6EA51070BF06FEF5188
:101C6000400803E2020E016EDED1F051F80FD8B049
:101C70005DD1080F000116EF10F00601F76BEFC6FB
:101C8000F6F6F96B0D0EF86F0001E0EC07F002C0FC
:101C9000F2F601C0F1F6210E06010124E96E000EF4
:101CA0000220EA6EEF50036AED6F03C0EEF63ED1FC
:101CB0000601F76BEFC6F6F6F96B0D0EF86F000133
:101CC000E0EC07F002C0F2F601C0F1F6010E0601E9
:101CD0000124016E000E0220036E0150210FE96EF7
:101CE000000E0320EA6EECCF03F0ED52EFCFEDF6DD
:101CF00003C0EEF61BD10601F76BEFC6F6F6F96BE3
:101D00000D0EF86F0001E0EC07F002C0F2F601C022
:101D1000F1F6030E06010124016E000E0220036E8F
:101D20000150210FE96E000E0320EA6EEF50036AA6
:101D3000ED6F03C0EEF6FAD00601F76BEFC6F6F6CC
:101D4000F96B0D0EF86F0001E0EC07F002C0F2F63F
:101D500001C0F1F6040E06010124016E000E0220FE
:101D6000036E0150210FE96E000E0320EA6EEF5062
:101D7000036AED6F03C0EEF6D9D00601F76BEFC62C
:101D8000F6F6F96B0D0EF86F0001E0EC07F001C0FC
:101D9000F1F6050E06010124016E000E0220036E0D
:101DA0000150210FE96E000E0320EA6EEFCFF1F62D
:101DB000ECCFF2F6ECCFF3F6ECCFF4F6F4C6F5F692
:101DC000F76BEFC6F6F6F96B0D0EF86F0001E0EC5D
:101DD00007F001C0F6F6050E06010124016E000EA3
:101DE0000220036E0150210FE96E000E0320EA6EFF
:101DF000EFCFF6F6ECCFF7F6ECCFF8F6ECCFF9F63E
:101E0000F8C6FAF6F5C6EEF6F8C6EDF68FD006017E
:101E1000F76BEFC6F6F6F96B0D0EF86F0001E0EC0C
:101E200007F001C0F1F6050E06010124016E000E57
:101E30000220036E0150210FE96E000E0320EA6EAE
:101E4000EFCFF1F6ECCFF2F6ECCFF3F6ECCFF4F601
:101E5000F2C6F5F6F76BEFC6F6F6F96B0D0EF86FF6
:101E60000001E0EC07F001C0F6F6050E06010124C2
:101E7000016E000E0220036E0150210FE96E000E6C
:101E80000320EA6EEFCFF6F6ECCFF7F6ECCFF8F6DC
:101E9000ECCFF9F6F6C6FAF6F5C6EEF6F6C6EDF6AE
:101EA00045D00601F76BEFC6F6F6F96B0D0EF86F2D
:101EB0000001E0EC07F002C0F2F601C0F1F6090EF5
:101EC00006010124016E000E0220036E0150210F55
:101ED000E96E000E0320EA6EECCF03F0ED52EFCF77
:101EE000EDF603C0EEF622D00601F76BEFC6F6F66C
:101EF000F96B0D0EF86F0001E0EC07F002C0F2F68E
:101F000001C0F1F60B0E06010124016E000E022045
:101F1000036E0150210FE96E000E0320EA6EEF50B0
:101F2000036AED6F03C0EEF601D0060163D0EA51FB
:101F3000006EEB51036E030E035C05E1E80E005CDE
:101F4000000132E00601030E035C05E1E90E005CCE
:101F500000012FE00601030E035C05E1EA0E005CC0
:101F600000012DE00601030E035C05E1EB0E005CB1
:101F700000012AE00601030E035C05E1EC0E005CA3
:101F8000000126E00601030E035C05E1ED0E005C96
:101F9000000123E00601040E035C05E14C0E005C29
:101FA00000011FE0060123D00601EE6B82C5EDF6AD
:101FB00021D084C5EEF683C5EDF606011BD00601DF
:101FC000EE6B520EED6F16D00601EE6BED6B12D07C
:101FD0000601EE6B340EED6F0DD00601EE6BED6B6E
:101FE00009D086C5EEF685C5EDF6060103D0020ED2
:101FF000016E19D06B0EEC25E96E040EEA6ED8B0B6
:10200000EA2AEEC6EFFF010EEC256B0FE96E040E17
:10201000EA6ED8B0EA2AEDC6EFFF020E050181276D
:10202000000E016E0601000143EF10F0E824F76A8C
:10203000F736470FF66E200EF7220A00F550FA6EBB
:102040000800F550F96E7A1CB01CF61C381D7A1D7C
:102050000E1EA21EE81E0601E66BE56BE451E55D6F
:1020600017E2E65315E1E551E225E76F000EE321A3
:10207000E86FD890E535E96FE8C6EBF6E7C6EAF613
:10208000EC6F0001D5D501C0E6F60601E52BE6D7D9
:10209000E6C601F0000121EF12F0030163531AE0DC
:1020A0000601E651E80809E1E751030806E1E8C640
:1020B00082F5000E016E83D10DD0E651E9080AE1E8
:1020C000E751030807E1E9C684F5E8C683F5000E89
:1020D000016E75D10601E7510308D8A002D104E1D1
:1020E000E651E708D8A0FDD0E731036EE631026E75
:1020F000033202320332023202C0EAF6E651070B23
:10210000EB6FEA51400803E2020E016E58D1EB5129
:10211000F80FD8B0E5D0080F0001E2EF11F006018A
:10212000F76BEAC6F6F6F96B0D0EF86F0001E0ECFE
:1021300007F002C0EFF601C0EEF6210E0601012401
:10214000E96E000E0220EA6EE8C6EFFFC9D0060174
:10215000F76BEAC6F6F6F96B0D0EF86F0001E0ECCE
:1021600007F002C0EFF601C0EEF6010E06010124F1
:10217000016E000E0220036E0150210FE96E000E69
:102180000320EA6EE9C6ECFFED52E8C6EFFFA8D0E7
:102190000601F76BEAC6F6F6F96B0D0EF86F000153
:1021A000E0EC07F002C0EFF601C0EEF6030E060108
:1021B0000124016E000E0220036E0150210FE96E12
:1021C000000E0320EA6EE8C6EFFF8AD00601F76B27
:1021D000EAC6F6F6F96B0D0EF86F0001E0EC07F0B9
:1021E00002C0EFF601C0EEF6040E06010124016EF6
:1021F000000E0220036E0150210FE96E000E032035
:10220000EA6EE8C6EFFF6CD0E9C6EDF6E8C6ECF67C
:10221000060166D00601F76BEAC6F6F6F96B0D0EFD
:10222000F86F0001E0EC07F001C0EEF6050E0601C4
:102230000124016E000E0220036E0150210FE96E91
:10224000000E0320EA6EEE52ECC6ECFFEDC6ECFF8A
:10225000ED52ED52ED52E8C6EFFFE9C6ECFF00018A
:102260000601F76BEAC6F6F6F96B0D0EF86F000182
:10227000E0EC07F002C0EFF601C0EEF6090E060131
:10228000EE25016E000EEF21036E0150210FE96E65
:10229000000E0320EA6EE9C6ECFFED52E8C6EFFF40
:1022A0001FD00601F76BEAC6F6F6F96B0D0EF86F54
:1022B0000001E0EC07F002C0EFF601C0EEF60B0EF5
:1022C00006010124016E000E0220036E0150210F51
:1022D000E96E000E0320EA6EE8C6EFFF01D00601AA
:1022E0006AD0E651006EE751036E040E035C05E10F
:1022F0004C0E005C000122E00601070E035C05E1C4
:10230000CD0E005C00011FE00601070E035C05E135
:10231000CE0E005C000118E00601070E035C05E12B
:10232000CF0E005C000120E006014E0E035C05E1CB
:102330001F0E005C000126E006013AD0E9C686F5D2
:10234000E8C685F539D0FF000601E851CE0803E163
:10235000E951070803E0030E016E31D00001D0EC13
:1023600007F025EC08F028D00601E82D02D0E9534B
:1023700003E0030E016E23D000019CEC07F0F1ECAA
:1023800007F01AD00601E8510A0803E1E9510708ED
:1023900006E00301636B030E016E060110D0010E0F
:1023A0000301636FC80E646F656B000105D0060101
:1023B000020E016E04D00001000E016E0601000144
:1023C00046EF12F0E824F76AF736DF0FF66E230EB9
:1023D000F7220A00F550FA6E0800F550F96E1E213A
:1023E0004E219021CC21082214226022A222050134
:1023F000816B7851006E7951036E035005E1030E35
:10240000005C000117E00501035005E1040E005CCB
:10241000000110E00501035005E1060E005C00011B
:1024200013E00501035005E1070E005C000131E0F7
:10243000050131D07BC5E3F67AC5E2F67CC5E4F64A
:102440000AD601C080F52AD06B0E05017D25E96E04
:10245000040EEA6ED8B0EA2AEFCFE2F6010E7D252F
:102460006B0FE96E040EEA6ED8B0EA2AEFCFE3F6FE
:10247000E2C6E5F6E3C6E4F67BC5E7F67AC5E6F61E
:10248000E2C6E9F6E3C6E8F6000107D601C080F52A
:1024900005D004D00501010E806F816B000194EF1F
:1024A00016F0E3C6EEF6020E0601EF6F0001D1EC66
:1024B00009F0E5C6E8F6E5C6F1F6BDEC09F0E4C6BC
:1024C000E8F6E4C6F1F6BDEC09F0E7C6E8F6E7C6C3
:1024D000F1F6BDEC09F0E6C6E8F6E6C6F1F6BDECAD
:1024E00009F0E5EC09F00601E3532AE00001FEECF7
:1024F00009F0015219E1FF0E05018727D8A08827AE
:10250000D8A08927D8A08A27875309E1885307E1F3
:10251000895305E18A53D8A402D0000105D00400F4
:1025200000000601E3D700010501875308E1885345
:1025300006E1895304E18A5302E10C0E926F060111
:1025400005018A6B010E896F860E886FA00E876F5A
:1025500092C501F00001C1EF14F0E3C6EEF6030EE0
:102560000601EF6F0001D1EC09F0E5C6E8F6E5C61B
:10257000F1F6BDEC09F0E4C6E8F6E4C6F1F6BDEC10
:1025800009F0E7C6E8F6E7C6F1F6BDEC09F0E6C6E5
:10259000E8F6E6C6F1F6BDEC09F0E5EC09F0060157
:1025A000E3532AE00001FEEC09F0015219E1FF0EAD
:1025B00005018727D8A08827D8A08927D8A08A27EF
:1025C000875309E1885307E1895305E18A53D8A469
:1025D00002D0000105D0040000000601E3D700018D
:1025E0000501875308E1885306E1895304E18A53C2
:1025F00002E10C0E926F060105018A6B010E896FD4
:10260000860E886FA00E876F92C501F00001D4EF8F
:1026100014F0E4C6EEF6050E0601EF6F0001D1ECF2
:1026200009F0E6C6E8F6E6C6F1F6BDEC09F0E5C647
:10263000E8F6E5C6F1F6BDEC09F00601E75306E061
:10264000F1690001BDEC09F005D00601F16B000154
:10265000BDEC09F00601F16B0001BDEC09F0E5EC01
:1026600009F00601E4532AE00001FEEC09F00152F2
:1026700019E1FF0E05018727D8A08827D8A0892750
:10268000D8A08A27875309E1885307E1895305E1D8
:102690008A53D8A402D0000105D00400000006012E
:1026A000E3D700010501875308E1885306E1895308
:1026B00004E18A5302E10C0E926F060105018A6B58
:1026C000010E896F860E886FA00E876F92C501F08C
:1026D000000103EF15F0E7C6EEF6060E0601EF6FF8
:1026E0000001D1EC09F0E9C6ECF6E9C6F1F6BDEC63
:1026F00009F0E8C6ECF6E8C6F1F6BDEC09F0EBC669
:10270000ECF6EBC6F1F6BDEC09F0EAC6ECF6EAC66B
:10271000F1F6BDEC09F0E5EC09F00601E7532AE01B
:102720000001FEEC09F0015219E1FF0E05018727B7
:10273000D8A08827D8A08927D8A08A27875309E15D
:10274000885307E1895305E18A53D8A402D00001D8
:1027500005D0040000000601E3D7000105018753FE
:1027600008E1885306E1895304E18A5302E10C0E23
:10277000926F060105018A6B010E896F860E886FC4
:10278000A00E876F92C501F000012EEF15F0D890D2
:102790000601E835026EE93502C0EDF6E5C6EEF653
:1027A000100EEF6F0001D1EC09F0E7C6EEF6E7C6B8
:1027B000F1F6BDEC09F0E6C6EEF6E6C6F1F6BDECC4
:1027C00009F0E9C6EEF6E9C6F1F6BDEC09F0E8C697
:1027D000EEF6E8C6F1F6BDEC09F0EDC6F1F6BDEC9B
:1027E00009F00601EC6BE95303E1E851EC5D2CE2E2
:1027F000D890EC35036AEA25E96EEB510320EA6EC6
:10280000ECCFEFF6ED52EFCFEEF6EEC6F0F6EEC6F9
:10281000F1F60001BDEC09F0D8900601EC35036A31
:10282000EA25E96EEB510320EA6EECCFEFF6ED52AC
:10283000EFCFEEF6EFC6F0F6EFC6F1F60001BDEC15
:1028400009F00601EC2BCFD70001E5EC09F00601F9
:10285000E5532AE00001FEEC09F0015219E1FF0EF8
:1028600005018727D8A08827D8A08927D8A08A273C
:10287000875309E1885307E1895305E18A53D8A4B6
:1028800002D0000105D0040000000601E3D70001DA
:102890000501875308E1885306E1895304E18A530F
:1028A00002E10C0E926F060105018A6B010E896F21
:1028B000860E886FA00E876F92C501F000014DEF64
:1028C00015F005017851006E7951036E035004E153
:1028D0000052000135E00501035005E1010E005CE6
:1028E00000012FE00501035005E1020E005C00012C
:1028F0003CE00501035005E1030E005C000148E0E7
:102900000501035005E1040E005C000154E00501DF
:10291000035005E1050E005C000161E00501035074
:1029200006E1060E005C0001D8B474D00501035026
:1029300006E1070E005C0001D8B497D00501B4D0C1
:10294000EDD076C5E3F67BC5E5F67AC5E4F606017B
:10295000E76B7CC5E6F60001CFEC0BF001C080F51B
:10296000010E0601E26F05019FD076C5E3F67BC537
:10297000E5F67AC5E4F60601E76B7CC5E6F60001EC
:1029800090D501C080F5010E0601E26F05018CD0E3
:1029900076C5E3F67BC5E5F67AC5E4F60601E76B96
:1029A0007CC5E6F60001D9D501C080F5010E06010F
:1029B000E26F050179D076C5E3F67BC5E5F67AC509
:1029C000E4F60601E76B7CC5E6F6000110EC0AF0C0
:1029D00001C080F5010E0601E26F050165D06B0EA6
:1029E00005017D25E96E040EEA6ED8B0EA2AEFCF24
:1029F000E3F676C5E4F67BC5E6F67AC5E5F6E3C60A
:102A0000E7F6000106D601C080F5020E0601E26F6E
:102A100005014AD06B0E05017D25E96E040EEA6EB4
:102A2000D8B0EA2AEFCFE3F6010E7D256B0FE96EF1
:102A3000040EEA6ED8B0EA2AEFCFE4F6E3C6E6F673
:102A4000E4C6E5F676C5E7F67BC5E9F67AC5E8F6AD
:102A5000E3C6EBF6E4C6EAF600013DD601C080F518
:102A6000020E0601E26F000159D06B0E05017D25B3
:102A70000601E36F040EE46FD8B0E42B76C5E5F6EB
:102A80007BC5E7F67AC5E6F6E96B7CC5E8F6E4C6F1
:102A9000EBF6E3C6EAF600017AD601C080F5020E35
:102AA0000601E26F00013AD00601E22D1DD00501BA
:102AB0008053D8B402D0060117D0010E905D816F0B
:102AC000010E905D0601E36F040EEA6E6B0EE96E77
:102AD000050EE26E940EE16EE351016E04E0E6CF66
:102AE000EEFF012EFCD71AD0E251020817E10501D2
:102AF0008053D8B402D0060111D0020E816F040EAB
:102B0000EA6E6B0EE96E050EE26E960EE16E020E37
:102B1000016EE6CFEEFF012EFCD70601000198EF13
:102B200016F0230E0601E26F82C5E3F684C5E4F6D3
:102B3000060183C5E5F60601E669140EE76F0D0E82
:102B400005018125020F0601EF6FF06BF0C6E8F674
:102B5000EFC6E9F671C5EAF6060170C5EBF60601A7
:102B60006FC5ECF606016EC5EDF6060180C5EEF602
:102B7000F469F369060EF66FE30EF56F0C0EF76F4E
:102B8000000164EC0AF002C0F0F601C0EFF6F0C6F6
:102B9000F4F6EFC6F3F6040E0601F66F6B0EF56F52
:102BA00081C5F7F6000164EC0AF002C0F0F601C03E
:102BB000EFF60601F16BF1510C0810E3036AF151D5
:102BC000E20FE96E060E0320EA6EEFCFF2F6F25145
:102BD000000195EC0AF00601F12BEDD7F16B050130
:102BE00081510601F15D10E26B0EF125E96E040ED4
:102BF000EA6ED8B0EA2AEFCFF2F6F251000195EC76
:102C00000AF00601F12BEBD7F0C6F2F6F251000103
:102C100095EC0AF0EFC6F2F60601F251000195ECD0
:102C20000AF099EF16F06FC46DF5020E05016D5DA7
:102C30006B0FE96E040EEA6ED8B0EA2AEFCFE2F627
:102C4000010E6D5D6B0FE96E040EEA6ED8B0EA2AD4
:102C5000EFCFE3F6E2C67FF5E3C67EF5030E6D5DCA
:102C60000601E26FF469F369040EF66F6C0EF56FFE
:102C7000E2C6F7F6000164EC0AF002C0E1F601C01A
:102C8000E0F605017E510601E05D05E105017F5199
:102C90000601E15D01E04ED004017051130803E02C
:102CA000060148D0040171C471F572C470F573C493
:102CB0006FF574C46EF575C475F576C474F577C494
:102CC00073F578C472F579C477F57AC476F57BC468
:102CD00079F57CC478F57DC47BF57EC47AF57FC434
:102CE0007CF5150E05017D6F816B0601DF6B82C5DA
:102CF000DEF683C5DCF684C5DDF6050172510601FA
:102D0000DC5D14E1050173510601DD5D0FE1050194
:102D100074510601DE5D0AE1050175510601DF5DB2
:102D200005E10001F7EF11F003D006010001C9D55C
:102D3000F8D6060100018BEF17F0F86AD09E078ED7
:102D40000E01550EA76EAA0EA76EFF910C0EF66F20
:102D5000050ED16F550EA76EAA0EA76EFF81EA6A07
:102D6000E96A206A7C86220EAB6E000E7D6EA60E8E
:102D7000A86E900E9C6E7E960C0EB06EA20EAD6E7E
:102D8000900EAC6E05018A6B010E896F860E886FFE
:102D9000A00E876F8B918C6B0601926B946B936B7B
:102DA0009B6B9A6BFF0E0F01486FC29CC29E4951EC
:102DB000E00B1F09496F070EB46E1A6A1B6A060101
:102DC000956B966B976B986B996B9C6B9D6B9E6BE1
:102DD0009F6BA06BA16BA26BA36BA46BA56BA66B87
:102DE000A76BA86BA96BAA6BAB6BAC6BAD6BAE6B37
:102DF000AF6BB06BB16BB26BB36BB46BB56BB66BE7
:102E0000B76BB86BB96BBA6BBB6BBC6BBD6BBE6B96
:102E1000BF6BC06BC16BC26BC36BC46BC56BC66B46
:102E2000C76BC86BC96BCA6BCB6BCC6BCD6BCE6BF6
:102E3000CF6BD06BD16BD26BD36BD46BD56BD66BA6
:102E4000D76BD86BD96BDA6BDB6B000114EF07F033
:102E5000C00EF212D0EC07F025EC08F0B2EF08F04B
:102E6000E0EF08F0FC0EF66E0D0EF76E0A0E06018E
:102E7000DC6F00010EEF09F0140EF66E0E0EF76E09
:102E800024EF09F0200EA4A8FED7A96E280EA4A84E
:102E9000FED7A96E05018251A4A8FED7A96E100E17
:102EA000E96E84C5DDF683C5DCF6000136EF09F076
:102EB000290EA4A8FED7A96E0D0EA4A8FED7A96E50
:102EC0000A0EA4A8FED7A96E94EF09F00A0E03011A
:102ED000656F640E0601DC6F0001A0EC09F00A0EBC
:102EE0000301646F640E0601DC6F0001A0EC09F0C1
:102EF0000301656B646B93948A9493908A800400B9
:102F0000615304E0616B000123EF0CF005016C5389
:102F100005E0000188D60FEC07F005010301EFD7AB
:022F20000300AC
:083FF800A1F4DFFFFFF9CFF196
:00000001FF
;PIC18F24J11
;CRC=BF49  CREATED="25-Nov-15 10:06"
